{
  "contractName": "Main",
  "abi": [
    {
      "constant": false,
      "inputs": [
        {
          "internalType": "string",
          "name": "x",
          "type": "string"
        }
      ],
      "name": "set",
      "outputs": [],
      "payable": false,
      "stateMutability": "nonpayable",
      "type": "function"
    },
    {
      "constant": true,
      "inputs": [],
      "name": "get",
      "outputs": [
        {
          "internalType": "string",
          "name": "",
          "type": "string"
        }
      ],
      "payable": false,
      "stateMutability": "view",
      "type": "function"
    },
    {
      "constant": false,
      "inputs": [],
      "name": "receive",
      "outputs": [],
      "payable": true,
      "stateMutability": "payable",
      "type": "function"
    },
    {
      "constant": false,
      "inputs": [
        {
          "internalType": "address payable",
          "name": "_driver",
          "type": "address"
        },
        {
          "internalType": "address",
          "name": "_user",
          "type": "address"
        }
      ],
      "name": "finalizeDriver",
      "outputs": [],
      "payable": false,
      "stateMutability": "nonpayable",
      "type": "function"
    },
    {
      "constant": false,
      "inputs": [
        {
          "internalType": "address payable",
          "name": "_address",
          "type": "address"
        },
        {
          "internalType": "address payable",
          "name": "_driver",
          "type": "address"
        }
      ],
      "name": "addEligibleDriver",
      "outputs": [],
      "payable": false,
      "stateMutability": "nonpayable",
      "type": "function"
    },
    {
      "constant": true,
      "inputs": [
        {
          "internalType": "address",
          "name": "_user",
          "type": "address"
        }
      ],
      "name": "returnDriverArray",
      "outputs": [
        {
          "internalType": "address[]",
          "name": "",
          "type": "address[]"
        }
      ],
      "payable": false,
      "stateMutability": "view",
      "type": "function"
    },
    {
      "constant": false,
      "inputs": [
        {
          "internalType": "address payable",
          "name": "_driver",
          "type": "address"
        }
      ],
      "name": "stageDriverStatus",
      "outputs": [],
      "payable": false,
      "stateMutability": "nonpayable",
      "type": "function"
    },
    {
      "constant": true,
      "inputs": [],
      "name": "returnDriverStatus",
      "outputs": [
        {
          "internalType": "address payable",
          "name": "",
          "type": "address"
        }
      ],
      "payable": false,
      "stateMutability": "view",
      "type": "function"
    },
    {
      "constant": false,
      "inputs": [],
      "name": "clearDriverStatus",
      "outputs": [],
      "payable": false,
      "stateMutability": "nonpayable",
      "type": "function"
    },
    {
      "constant": false,
      "inputs": [
        {
          "internalType": "address",
          "name": "_user",
          "type": "address"
        }
      ],
      "name": "setUserConfirmation",
      "outputs": [],
      "payable": false,
      "stateMutability": "nonpayable",
      "type": "function"
    },
    {
      "constant": false,
      "inputs": [
        {
          "internalType": "address",
          "name": "_user",
          "type": "address"
        },
        {
          "internalType": "uint256",
          "name": "_amount",
          "type": "uint256"
        }
      ],
      "name": "setCost",
      "outputs": [],
      "payable": false,
      "stateMutability": "nonpayable",
      "type": "function"
    },
    {
      "constant": false,
      "inputs": [
        {
          "internalType": "address",
          "name": "_user",
          "type": "address"
        }
      ],
      "name": "setDriverConfimation",
      "outputs": [],
      "payable": false,
      "stateMutability": "nonpayable",
      "type": "function"
    },
    {
      "constant": false,
      "inputs": [
        {
          "internalType": "address",
          "name": "_user",
          "type": "address"
        }
      ],
      "name": "finalizeTrip",
      "outputs": [],
      "payable": true,
      "stateMutability": "payable",
      "type": "function"
    }
  ],
  "bytecode": "0x608060405234801561001057600080fd5b5061173a806100206000396000f3fe6080604052600436106100c25760003560e01c80636d4ce63c1161007f578063891255ae11610059578063891255ae146104b75780639a4c89cc146104fb578063a3e76c0f1461054c578063f38de3d514610556576100c2565b80636d4ce63c1461039f5780637114241d1461042f57806372857ecd14610446576100c2565b806329dff70a146100c75780633e6aeeb5146101185780633e87efac1461016f5780634ed3885e146101c05780635fcb44fd146102885780636750da071461032e575b600080fd5b3480156100d357600080fd5b50610116600480360360208110156100ea57600080fd5b81019080803573ffffffffffffffffffffffffffffffffffffffff1690602001909291905050506105b1565b005b34801561012457600080fd5b5061012d610713565b604051808273ffffffffffffffffffffffffffffffffffffffff1673ffffffffffffffffffffffffffffffffffffffff16815260200191505060405180910390f35b34801561017b57600080fd5b506101be6004803603602081101561019257600080fd5b81019080803573ffffffffffffffffffffffffffffffffffffffff169060200190929190505050610757565b005b3480156101cc57600080fd5b50610286600480360360208110156101e357600080fd5b810190808035906020019064010000000081111561020057600080fd5b82018360208201111561021257600080fd5b8035906020019184600183028401116401000000008311171561023457600080fd5b91908080601f016020809104026020016040519081016040528093929190818152602001838380828437600081840152601f19601f8201169050808301925050505050505091929192905050506108b9565b005b34801561029457600080fd5b506102d7600480360360208110156102ab57600080fd5b81019080803573ffffffffffffffffffffffffffffffffffffffff1690602001909291905050506108d3565b6040518080602001828103825283818151815260200191508051906020019060200280838360005b8381101561031a5780820151818401526020810190506102ff565b505050509050019250505060405180910390f35b34801561033a57600080fd5b5061039d6004803603604081101561035157600080fd5b81019080803573ffffffffffffffffffffffffffffffffffffffff169060200190929190803573ffffffffffffffffffffffffffffffffffffffff1690602001909291905050506109a3565b005b3480156103ab57600080fd5b506103b4610c46565b6040518080602001828103825283818151815260200191508051906020019080838360005b838110156103f45780820151818401526020810190506103d9565b50505050905090810190601f1680156104215780820380516001836020036101000a031916815260200191505b509250505060405180910390f35b34801561043b57600080fd5b50610444610ce8565b005b34801561045257600080fd5b506104b56004803603604081101561046957600080fd5b81019080803573ffffffffffffffffffffffffffffffffffffffff169060200190929190803573ffffffffffffffffffffffffffffffffffffffff169060200190929190505050610d47565b005b6104f9600480360360208110156104cd57600080fd5b81019080803573ffffffffffffffffffffffffffffffffffffffff169060200190929190505050610dd5565b005b34801561050757600080fd5b5061054a6004803603602081101561051e57600080fd5b81019080803573ffffffffffffffffffffffffffffffffffffffff16906020019092919050505061127f565b005b6105546114e9565b005b34801561056257600080fd5b506105af6004803603604081101561057957600080fd5b81019080803573ffffffffffffffffffffffffffffffffffffffff169060200190929190803590602001909291905050506114eb565b005b600073ffffffffffffffffffffffffffffffffffffffff16600160008373ffffffffffffffffffffffffffffffffffffffff1673ffffffffffffffffffffffffffffffffffffffff16815260200190815260200160002060020160009054906101000a900473ffffffffffffffffffffffffffffffffffffffff1673ffffffffffffffffffffffffffffffffffffffff1614156106b6576040517f08c379a00000000000000000000000000000000000000000000000000000000081526004018080602001828103825260148152602001807f46696e616c20647269766572206e6f742073657400000000000000000000000081525060200191505060405180910390fd5b60018060008373ffffffffffffffffffffffffffffffffffffffff1673ffffffffffffffffffffffffffffffffffffffff16815260200190815260200160002060020160156101000a81548160ff02191690831515021790555050565b6000600360019054906101000a900460ff1661075357600360029054906101000a900473ffffffffffffffffffffffffffffffffffffffff169050610754565b5b90565b600073ffffffffffffffffffffffffffffffffffffffff16600160008373ffffffffffffffffffffffffffffffffffffffff1673ffffffffffffffffffffffffffffffffffffffff16815260200190815260200160002060020160009054906101000a900473ffffffffffffffffffffffffffffffffffffffff1673ffffffffffffffffffffffffffffffffffffffff16141561085c576040517f08c379a00000000000000000000000000000000000000000000000000000000081526004018080602001828103825260148152602001807f46696e616c20647269766572206e6f742073657400000000000000000000000081525060200191505060405180910390fd5b60018060008373ffffffffffffffffffffffffffffffffffffffff1673ffffffffffffffffffffffffffffffffffffffff16815260200190815260200160002060020160146101000a81548160ff02191690831515021790555050565b80600090805190602001906108cf92919061163f565b5050565b6060600160008373ffffffffffffffffffffffffffffffffffffffff1673ffffffffffffffffffffffffffffffffffffffff16815260200190815260200160002060000180548060200260200160405190810160405280929190818152602001828054801561099757602002820191906000526020600020905b8160009054906101000a900473ffffffffffffffffffffffffffffffffffffffff1673ffffffffffffffffffffffffffffffffffffffff168152602001906001019080831161094d575b50505050509050919050565b6001600360006101000a81548160ff021916908315150217905550600160008373ffffffffffffffffffffffffffffffffffffffff1673ffffffffffffffffffffffffffffffffffffffff1681526020019081526020016000206000018190806001815401808255809150509060018203906000526020600020016000909192909190916101000a81548173ffffffffffffffffffffffffffffffffffffffff021916908373ffffffffffffffffffffffffffffffffffffffff160217905550506000600160008473ffffffffffffffffffffffffffffffffffffffff1673ffffffffffffffffffffffffffffffffffffffff16815260200190815260200160002060020160146101000a81548160ff0219169083151502179055506000600160008473ffffffffffffffffffffffffffffffffffffffff1673ffffffffffffffffffffffffffffffffffffffff16815260200190815260200160002060020160156101000a81548160ff02191690831515021790555060008090505b600280549050811015610bc5578273ffffffffffffffffffffffffffffffffffffffff1660028281548110610b5157fe5b9060005260206000200160009054906101000a900473ffffffffffffffffffffffffffffffffffffffff1673ffffffffffffffffffffffffffffffffffffffff161415610bb8576000600360006101000a81548160ff021916908315150217905550610bc5565b8080600101915050610b20565b50600360009054906101000a900460ff1615610c425760028290806001815401808255809150509060018203906000526020600020016000909192909190916101000a81548173ffffffffffffffffffffffffffffffffffffffff021916908373ffffffffffffffffffffffffffffffffffffffff160217905550505b5050565b606060008054600181600116156101000203166002900480601f016020809104026020016040519081016040528092919081815260200182805460018160011615610100020316600290048015610cde5780601f10610cb357610100808354040283529160200191610cde565b820191906000526020600020905b815481529060010190602001808311610cc157829003601f168201915b5050505050905090565b6001600360016101000a81548160ff0219169083151502179055506000600360026101000a81548173ffffffffffffffffffffffffffffffffffffffff021916908373ffffffffffffffffffffffffffffffffffffffff160217905550565b81600160008373ffffffffffffffffffffffffffffffffffffffff1673ffffffffffffffffffffffffffffffffffffffff16815260200190815260200160002060020160006101000a81548173ffffffffffffffffffffffffffffffffffffffff021916908373ffffffffffffffffffffffffffffffffffffffff160217905550610dd1816115ee565b5050565b600160008273ffffffffffffffffffffffffffffffffffffffff1673ffffffffffffffffffffffffffffffffffffffff16815260200190815260200160002060020160149054906101000a900460ff16610e97576040517f08c379a000000000000000000000000000000000000000000000000000000000815260040180806020018281038252601d8152602001807f5573657220636f6e6669726d6174696f6e20697320726571756972656400000081525060200191505060405180910390fd5b600160008273ffffffffffffffffffffffffffffffffffffffff1673ffffffffffffffffffffffffffffffffffffffff16815260200190815260200160002060020160159054906101000a900460ff16610f59576040517f08c379a000000000000000000000000000000000000000000000000000000000815260040180806020018281038252601f8152602001807f44726976657220636f6e6669726d6174696f6e2069732072657175697265640081525060200191505060405180910390fd5b600160008273ffffffffffffffffffffffffffffffffffffffff1673ffffffffffffffffffffffffffffffffffffffff16815260200190815260200160002060010154471015611011576040517f08c379a00000000000000000000000000000000000000000000000000000000081526004018080602001828103825260208152602001807f496e73756666696369656e742062616c616e636520696e20636f6e747261637481525060200191505060405180910390fd5b600160008273ffffffffffffffffffffffffffffffffffffffff1673ffffffffffffffffffffffffffffffffffffffff16815260200190815260200160002060020160009054906101000a900473ffffffffffffffffffffffffffffffffffffffff1673ffffffffffffffffffffffffffffffffffffffff166108fc600160008473ffffffffffffffffffffffffffffffffffffffff1673ffffffffffffffffffffffffffffffffffffffff168152602001908152602001600020600101549081150290604051600060405180830381858888f193505050501580156110fb573d6000803e3d6000fd5b506000600160008373ffffffffffffffffffffffffffffffffffffffff1673ffffffffffffffffffffffffffffffffffffffff16815260200190815260200160002060020160146101000a81548160ff0219169083151502179055506000600160008373ffffffffffffffffffffffffffffffffffffffff1673ffffffffffffffffffffffffffffffffffffffff16815260200190815260200160002060020160156101000a81548160ff0219169083151502179055506000600160008373ffffffffffffffffffffffffffffffffffffffff1673ffffffffffffffffffffffffffffffffffffffff16815260200190815260200160002060020160006101000a81548173ffffffffffffffffffffffffffffffffffffffff021916908373ffffffffffffffffffffffffffffffffffffffff1602179055506000600160008373ffffffffffffffffffffffffffffffffffffffff1673ffffffffffffffffffffffffffffffffffffffff1681526020019081526020016000206001018190555050565b6001600360016101000a81548160ff02191690831515021790555060008090505b6002805490508110156114e557600360019054906101000a900460ff166112c6576114e5565b60008090505b60016000600284815481106112dd57fe5b9060005260206000200160009054906101000a900473ffffffffffffffffffffffffffffffffffffffff1673ffffffffffffffffffffffffffffffffffffffff1673ffffffffffffffffffffffffffffffffffffffff168152602001908152602001600020600001805490508110156114d7578273ffffffffffffffffffffffffffffffffffffffff16600160006002858154811061137857fe5b9060005260206000200160009054906101000a900473ffffffffffffffffffffffffffffffffffffffff1673ffffffffffffffffffffffffffffffffffffffff1673ffffffffffffffffffffffffffffffffffffffff16815260200190815260200160002060000182815481106113eb57fe5b9060005260206000200160009054906101000a900473ffffffffffffffffffffffffffffffffffffffff1673ffffffffffffffffffffffffffffffffffffffff1614156114ca576002828154811061143f57fe5b9060005260206000200160009054906101000a900473ffffffffffffffffffffffffffffffffffffffff16600360026101000a81548173ffffffffffffffffffffffffffffffffffffffff021916908373ffffffffffffffffffffffffffffffffffffffff1602179055506000600360016101000a81548160ff0219169083151502179055506114d7565b80806001019150506112cc565b5080806001019150506112a0565b5050565b565b6000600160008473ffffffffffffffffffffffffffffffffffffffff1673ffffffffffffffffffffffffffffffffffffffff16815260200190815260200160002060010154146115a3576040517f08c379a00000000000000000000000000000000000000000000000000000000081526004018080602001828103825260128152602001807f416d6f756e7420616c726561647920736574000000000000000000000000000081525060200191505060405180910390fd5b80600160008473ffffffffffffffffffffffffffffffffffffffff1673ffffffffffffffffffffffffffffffffffffffff168152602001908152602001600020600101819055505050565b600160008273ffffffffffffffffffffffffffffffffffffffff1673ffffffffffffffffffffffffffffffffffffffff168152602001908152602001600020600001600061163c91906116bf565b50565b828054600181600116156101000203166002900490600052602060002090601f016020900481019282601f1061168057805160ff19168380011785556116ae565b828001600101855582156116ae579182015b828111156116ad578251825591602001919060010190611692565b5b5090506116bb91906116e0565b5090565b50805460008255906000526020600020908101906116dd91906116e0565b50565b61170291905b808211156116fe5760008160009055506001016116e6565b5090565b9056fea265627a7a7231582059d6b57e8ac2725ef751848aec1bc40a73e135f7300f8eba16d913500ddec27964736f6c63430005100032",
  "source": "pragma solidity >=0.4.21 <0.7.0;\r\n\r\ncontract Main {\r\n    \r\n    string storedData;\r\n\r\n    function set(string memory x) public {\r\n        storedData = x;\r\n    }\r\n\r\n    function get() public view returns (string memory) {\r\n        return storedData;\r\n    }\r\n\r\n    function receive () external payable {\r\n\r\n    }\r\n\r\n    struct eligibleDrivers {\r\n        address[] drivers;\r\n        uint256 amount;\r\n        address payable finalDriver;\r\n        bool userConfirmation;\r\n        bool driverConfirmation;\r\n    }\r\n\r\n    mapping(address => eligibleDrivers) driverTable; \r\n    address payable[] driverTableAddresses;\r\n\r\n    function clearDrivers(address _address) private {\r\n        delete driverTable[_address].drivers;\r\n    }\r\n\r\n    function finalizeDriver(address payable _driver, address _user) public {\r\n        driverTable[_user].finalDriver = _driver;\r\n        clearDrivers(_user);\r\n    }\r\n\r\n    bool temp;\r\n\r\n    function addEligibleDriver(address payable _address, address payable _driver) public {\r\n        temp = true;\r\n        driverTable[_address].drivers.push(_driver);\r\n        driverTable[_address].userConfirmation = false;\r\n        driverTable[_address].driverConfirmation = false;\r\n        \r\n        for (uint256 j = 0; j < driverTableAddresses.length; j++) {\r\n            if (driverTableAddresses[j] == _address) {\r\n                temp = false;\r\n                break;\r\n            }\r\n        }\r\n        \r\n        if (temp) {\r\n            driverTableAddresses.push(_address);\r\n        }\r\n    }\r\n\r\n    function returnDriverArray(address _user) public view returns (address[] memory) {\r\n        return driverTable[_user].drivers;\r\n    }\r\n\r\n    bool breaker;\r\n    address payable tempAddress;\r\n\r\n    function stageDriverStatus(address payable _driver) public {\r\n        breaker = true;\r\n        \r\n        for (uint256 i = 0; i < driverTableAddresses.length; i++) {\r\n            if (!breaker) {\r\n                break;\r\n            }\r\n            for (uint256 j = 0; j < driverTable[driverTableAddresses[i]].drivers.length; j++) {\r\n                if (driverTable[driverTableAddresses[i]].drivers[j] == _driver) {\r\n                    tempAddress = driverTableAddresses[i];\r\n                    breaker = false;\r\n                    break;\r\n                }\r\n            }\r\n        }\r\n    }\r\n\r\n    function returnDriverStatus() public view returns (address payable) {\r\n        if (!breaker) {\r\n            return tempAddress;\r\n        }\r\n    }\r\n\r\n    function clearDriverStatus() public {\r\n        breaker = true;\r\n        tempAddress = address(0);\r\n    }\r\n\r\n    function setUserConfirmation(address _user) public {\r\n        require(driverTable[_user].finalDriver != address(0), \"Final driver not set\");\r\n        driverTable[_user].userConfirmation = true;\r\n    }\r\n\r\n    function setCost(address _user, uint256 _amount) public {\r\n        require(driverTable[_user].amount == 0, \"Amount already set\");\r\n        driverTable[_user].amount = _amount;\r\n    }\r\n\r\n    function setDriverConfimation(address _user) public {\r\n        require(driverTable[_user].finalDriver != address(0), \"Final driver not set\");\r\n        driverTable[_user].driverConfirmation = true;\r\n    }\r\n\r\n    function finalizeTrip(address _user) public payable {\r\n        require(driverTable[_user].userConfirmation, \"User confirmation is required\");\r\n        require(driverTable[_user].driverConfirmation, \"Driver confirmation is required\");\r\n        require(address(this).balance >= driverTable[_user].amount, \"Insufficient balance in contract\");\r\n\r\n        driverTable[_user].finalDriver.transfer(driverTable[_user].amount);\r\n        driverTable[_user].userConfirmation = false;\r\n        driverTable[_user].driverConfirmation = false;\r\n        driverTable[_user].finalDriver = address(0);\r\n        driverTable[_user].amount = 0;\r\n    }\r\n}\r\n",
  "sourcePath": "C:\\Users\\Anubhav Ranjan\\OneDrive\\Desktop\\PeerPool-Blockchain Project\\peerpool\\contracts\\Main.sol",
  "compiler": {
    "name": "solc",
    "version": "0.5.16+commit.9c3226ce.Emscripten.clang"
  },
  "schemaVersion": "3.4.16",
  "updatedAt": "2024-10-26T08:48:23.682Z",
  "devdoc": {
    "methods": {}
  },
  "userdoc": {
    "methods": {}
  }
}